:040000008A11112828
:10000800FE00030EF0000408F1000A08F200831253
:1000180003137F08F3008A11A72A8A11B22A8312D0
:100028000313B2002930AD002D08B000D9283808D4
:10003800253A031920282128262838088A119922C8
:100048008A11D928B1012D28ED2840284028D9281F
:1000580040280130B207FF30320784008A11772226
:100068008A11B800003A0319ED28643A03194028A8
:100078000D3A03194028D928300884008313000852
:10008800B400840A0008B5000230AD002D08B0079E
:10009800B51F4F2850285A280330AD002D08B10449
:1000A800B409B509B40A0319B50A5A28B801B80A37
:1000B8003808053A031D612862286428882888289A
:1000C8003808AD002D07013E84008A1177228A1175
:1000D800AE008A1177228A11AF002F083502031D5E
:1000E80077282E08340203187A287B287D28882848
:1000F80088280130AD002D08B8073808053A031DD7
:1001080086288728642888283108033903198D2808
:100118008E2893282D308A1199228A1193288312C8
:1001280003133808AD002D08B300CB280A30A3000C
:100138000030A4003308AD002D07013E84008A1169
:1001480077228A11F4008A1177228A11F50035087E
:10015800F701F7073408F601F6078A11E3218A1137
:10016800750883120313A601A6077408A501A5073D
:100178008A1132228A11831203132308303EAE00FB
:100188002E08B80038088A1199228A11CB28FF3026
:1001980083120313AD002D08B3073308FF3A031D7C
:1001A800D628D7289A28D928D928013083120313AA
:1001B800B207FF30320784008A1177228A11AD0016
:1001C8002D08B800B808031DEA28EB281B28ED28DD
:1001D800ED280800831603130F088F3960388F0045
:1001E800831203179E019F0183160313871283123C
:1001F8000313871683160313071081120108F839B1
:10020800043881008111323083120313B900390890
:10021800BD006430F4000030F5003D08B900BA01B3
:100228003908F6003A08F7008A116F218A11750813
:10023800831203138F018F0774088E018E07C9304C
:100248009000093097000E08023E95000C112C29E9
:100258006430B9003908BF003230B9003908BE002F
:1002680035290C1D3829392935290C1107148E0117
:100278008F01083097003F03FF3A96006430B900B9
:100288003908BF003230B9003908BE003F08B9004C
:10029800BA013908A9003A08AA003E08BB00BC0107
:1002A8003B08AB003C08AC000B308A1113208A11C4
:1002B8005D29831203130C1D622963295D296429B2
:1002C8008E018F01093097003E03FF3A95002C29D3
:1002D8002C298A11112883120313A101F51F7529EE
:1002E80076297E29F409F509F40A0319F50AA1010A
:1002F800A10A7E29F71F812982298C29F609F70985
:10030800F60A0319F70A0130F8007808A1068C29C3
:10031800A201A30175087404031993299429D1290A
:10032800A001A00AA32901300310F40DF50DFF3E2A
:10033800031D98290130F8007808A007A329F51FA4
:10034800A629A7299729A929A92901300310A20DAF
:10035800A30DFF3E031DAA2975087702031DB629C0
:1003680074087602031CB929BA29C2297408F6024E
:100378007508031CF703F7022214C2290130031081
:10038800F50CF40CFF3E031DC3290130A002031D28
:10039800CE29CF29A929D129D1292108031DD52959
:1003A800DB29A209A309A20A0319A30ADB29230846
:1003B800F501F5072208F401F407E2290800831281
:1003C8000313A001A101750874040319EC29ED2990
:1003D8002A2AA201A20AFC2901300310F40DF50D06
:1003E800FF3E031DF1290130F8007808A207FC2917
:1003F800F51FFF29002AF029022A022A01300310DA
:10040800A00DA10DFF3E031D032A75087702031DE9
:100418000F2A74087602031C122A132A1B2A74084E
:10042800F6027508031CF703F70220141B2A013093
:100438000310F50CF40CFF3E031D1C2A0130A20228
:10044800031D272A282A022A2A2A2A2A2108F501EE
:10045800F5072008F401F407312A08008312031372
:10046800240823040319392A3A2A6F2AA801A80A5A
:10047800492A01300310A30DA40DFF3E031D3E2A97
:100488000130A7002708A807492AA41F4C2A4D2A8B
:100498003D2A4F2A4F2A24082602031D552A2308DD
:1004A8002502031C582A592A602A2308A502240871
:1004B800031CA603A602602A01300310A40CA30C97
:1004C800FF3E031D612A0130A802031D6C2A6D2A14
:1004D8004F2A6F2A6F2A2608A401A4072508A3011A
:1004E800A307762A080002308A000408840A8207D3
:1004F8000034013400340A34003464340034E834FD
:1005080003341034273474345F346F346E343D341C
:10051800253464342C34203474345F346F346634B6
:1005280066343D34253464340034F400740883128E
:10053800031399009F2A83160313981CA42AA52A3B
:100548009F2AA62A08007308FF0072088A0071080B
:100558008400700E8300FE0E7E0E0900F9018301EF
:040568008A11EE28DE
:02400E00F4FFBD
:00000001FF
